{
  "_format": "hh-sol-artifact-1",
  "contractName": "Arch911Contract",
  "sourceName": "contracts/Arch911.sol",
  "abi": [
    {
      "anonymous": false,
      "inputs": [
        {
          "indexed": true,
          "internalType": "address",
          "name": "previousOwner",
          "type": "address"
        },
        {
          "indexed": true,
          "internalType": "address",
          "name": "newOwner",
          "type": "address"
        }
      ],
      "name": "OwnershipTransferred",
      "type": "event"
    },
    {
      "inputs": [],
      "name": "addDeposit",
      "outputs": [],
      "stateMutability": "payable",
      "type": "function"
    },
    {
      "inputs": [
        {
          "internalType": "uint256",
          "name": "_depositId",
          "type": "uint256"
        },
        {
          "internalType": "address",
          "name": "_depositorAddress",
          "type": "address"
        }
      ],
      "name": "addWatcher",
      "outputs": [],
      "stateMutability": "payable",
      "type": "function"
    },
    {
      "inputs": [
        {
          "internalType": "address",
          "name": "_depositorAddress",
          "type": "address"
        }
      ],
      "name": "getDepositsByOwner",
      "outputs": [
        {
          "components": [
            {
              "internalType": "uint256",
              "name": "depositId",
              "type": "uint256"
            },
            {
              "internalType": "address",
              "name": "depositorAddress",
              "type": "address"
            },
            {
              "internalType": "uint256",
              "name": "amount",
              "type": "uint256"
            },
            {
              "internalType": "uint256",
              "name": "creationTime",
              "type": "uint256"
            },
            {
              "internalType": "uint256",
              "name": "maturityTime",
              "type": "uint256"
            }
          ],
          "internalType": "struct Arch911Contract.Deposit[]",
          "name": "",
          "type": "tuple[]"
        }
      ],
      "stateMutability": "view",
      "type": "function"
    },
    {
      "inputs": [],
      "name": "getVaultDetails",
      "outputs": [
        {
          "internalType": "uint256",
          "name": "",
          "type": "uint256"
        },
        {
          "internalType": "uint256",
          "name": "",
          "type": "uint256"
        },
        {
          "internalType": "uint256",
          "name": "",
          "type": "uint256"
        },
        {
          "internalType": "uint256",
          "name": "",
          "type": "uint256"
        }
      ],
      "stateMutability": "view",
      "type": "function"
    },
    {
      "inputs": [
        {
          "internalType": "uint256",
          "name": "_depositId",
          "type": "uint256"
        }
      ],
      "name": "getWatchesOnDeposit",
      "outputs": [
        {
          "components": [
            {
              "internalType": "address",
              "name": "depositorAddress",
              "type": "address"
            },
            {
              "internalType": "address",
              "name": "watcherAddress",
              "type": "address"
            },
            {
              "internalType": "uint256",
              "name": "watchCreationTime",
              "type": "uint256"
            }
          ],
          "internalType": "struct Arch911Contract.Watch[]",
          "name": "",
          "type": "tuple[]"
        }
      ],
      "stateMutability": "view",
      "type": "function"
    },
    {
      "inputs": [],
      "name": "numOfDeposits",
      "outputs": [
        {
          "internalType": "uint256",
          "name": "",
          "type": "uint256"
        }
      ],
      "stateMutability": "view",
      "type": "function"
    },
    {
      "inputs": [],
      "name": "numOfUniqueDepositors",
      "outputs": [
        {
          "internalType": "uint256",
          "name": "",
          "type": "uint256"
        }
      ],
      "stateMutability": "view",
      "type": "function"
    },
    {
      "inputs": [],
      "name": "numberOfWatch",
      "outputs": [
        {
          "internalType": "uint256",
          "name": "",
          "type": "uint256"
        }
      ],
      "stateMutability": "view",
      "type": "function"
    },
    {
      "inputs": [],
      "name": "owner",
      "outputs": [
        {
          "internalType": "address",
          "name": "",
          "type": "address"
        }
      ],
      "stateMutability": "view",
      "type": "function"
    },
    {
      "inputs": [],
      "name": "renounceOwnership",
      "outputs": [],
      "stateMutability": "nonpayable",
      "type": "function"
    },
    {
      "inputs": [
        {
          "internalType": "uint256",
          "name": "_depositId",
          "type": "uint256"
        }
      ],
      "name": "submitWithdrawRequest",
      "outputs": [],
      "stateMutability": "nonpayable",
      "type": "function"
    },
    {
      "inputs": [],
      "name": "totalDepositValue",
      "outputs": [
        {
          "internalType": "uint256",
          "name": "",
          "type": "uint256"
        }
      ],
      "stateMutability": "view",
      "type": "function"
    },
    {
      "inputs": [],
      "name": "totalVaultValue",
      "outputs": [
        {
          "internalType": "uint256",
          "name": "",
          "type": "uint256"
        }
      ],
      "stateMutability": "view",
      "type": "function"
    },
    {
      "inputs": [
        {
          "internalType": "address",
          "name": "newOwner",
          "type": "address"
        }
      ],
      "name": "transferOwnership",
      "outputs": [],
      "stateMutability": "nonpayable",
      "type": "function"
    },
    {
      "inputs": [],
      "name": "watchCreationFees",
      "outputs": [
        {
          "internalType": "uint256",
          "name": "",
          "type": "uint256"
        }
      ],
      "stateMutability": "view",
      "type": "function"
    },
    {
      "inputs": [
        {
          "internalType": "uint256",
          "name": "_depositId",
          "type": "uint256"
        }
      ],
      "name": "withdraw",
      "outputs": [],
      "stateMutability": "nonpayable",
      "type": "function"
    }
  ],
  "bytecode": "0x608060405267016345785d8a000060065566033c8cb763f00060075560786008553480156200002d57600080fd5b506200004e620000426200005460201b60201c565b6200005c60201b60201c565b62000120565b600033905090565b60008060009054906101000a900473ffffffffffffffffffffffffffffffffffffffff169050816000806101000a81548173ffffffffffffffffffffffffffffffffffffffff021916908373ffffffffffffffffffffffffffffffffffffffff1602179055508173ffffffffffffffffffffffffffffffffffffffff168173ffffffffffffffffffffffffffffffffffffffff167f8be0079c531659141344cd1fd0a4f28419497f9722a3daafe3b4186f6b6457e060405160405180910390a35050565b612b4880620001306000396000f3fe6080604052600436106100f35760003560e01c8063a8944c6a1161008a578063c41f9dd711610059578063c41f9dd7146102ea578063cd16ebf714610315578063d444910714610340578063f2fde38b1461035c576100f3565b8063a8944c6a14610240578063afbc74b91461026b578063baeca50514610296578063bd194db0146102bf576100f3565b80634a58db19116100c65780634a58db19146101c6578063533092ef146101d0578063715018a6146101fe5780638da5cb5b14610215576100f3565b806311aeb02a146100f857806322271c1c146101355780632e1a7d4d14610172578063472d39eb1461019b575b600080fd5b34801561010457600080fd5b5061011f600480360381019061011a9190611f17565b610385565b60405161012c91906123a5565b60405180910390f35b34801561014157600080fd5b5061015c60048036038101906101579190611f40565b6104a1565b60405161016991906123c7565b60405180910390f35b34801561017e57600080fd5b5061019960048036038101906101949190611f40565b6105c9565b005b3480156101a757600080fd5b506101b0611034565b6040516101bd9190612549565b60405180910390f35b6101ce61103a565b005b3480156101dc57600080fd5b506101e5611282565b6040516101f59493929190612564565b60405180910390f35b34801561020a57600080fd5b506102136112a2565b005b34801561022157600080fd5b5061022a61132a565b604051610237919061238a565b60405180910390f35b34801561024c57600080fd5b50610255611353565b6040516102629190612549565b60405180910390f35b34801561027757600080fd5b50610280611359565b60405161028d9190612549565b60405180910390f35b3480156102a257600080fd5b506102bd60048036038101906102b89190611f40565b61135f565b005b3480156102cb57600080fd5b506102d4611751565b6040516102e19190612549565b60405180910390f35b3480156102f657600080fd5b506102ff611757565b60405161030c9190612549565b60405180910390f35b34801561032157600080fd5b5061032a61175d565b6040516103379190612549565b60405180910390f35b61035a60048036038101906103559190611f69565b611763565b005b34801561036857600080fd5b50610383600480360381019061037e9190611f17565b61194e565b005b6060600960008373ffffffffffffffffffffffffffffffffffffffff1673ffffffffffffffffffffffffffffffffffffffff168152602001908152602001600020805480602002602001604051908101604052809291908181526020016000905b8282101561049657838290600052602060002090600502016040518060a0016040529081600082015481526020016001820160009054906101000a900473ffffffffffffffffffffffffffffffffffffffff1673ffffffffffffffffffffffffffffffffffffffff1673ffffffffffffffffffffffffffffffffffffffff1681526020016002820154815260200160038201548152602001600482015481525050815260200190600101906103e6565b505050509050919050565b6060600a6000838152602001908152602001600020805480602002602001604051908101604052809291908181526020016000905b828210156105be57838290600052602060002090600302016040518060600160405290816000820160009054906101000a900473ffffffffffffffffffffffffffffffffffffffff1673ffffffffffffffffffffffffffffffffffffffff1673ffffffffffffffffffffffffffffffffffffffff1681526020016001820160009054906101000a900473ffffffffffffffffffffffffffffffffffffffff1673ffffffffffffffffffffffffffffffffffffffff1673ffffffffffffffffffffffffffffffffffffffff168152602001600282015481525050815260200190600101906104d6565b505050509050919050565b60008060006105d88433611a46565b9250925092508261061e576040517f08c379a0000000000000000000000000000000000000000000000000000000008152600401610615906124a9565b60405180910390fd5b3373ffffffffffffffffffffffffffffffffffffffff16600960003373ffffffffffffffffffffffffffffffffffffffff1673ffffffffffffffffffffffffffffffffffffffff16815260200190815260200160002083815481106106ac577f4e487b7100000000000000000000000000000000000000000000000000000000600052603260045260246000fd5b906000526020600020906005020160010160009054906101000a900473ffffffffffffffffffffffffffffffffffffffff1673ffffffffffffffffffffffffffffffffffffffff1614610734576040517f08c379a000000000000000000000000000000000000000000000000000000000815260040161072b90612469565b60405180910390fd5b600960003373ffffffffffffffffffffffffffffffffffffffff1673ffffffffffffffffffffffffffffffffffffffff16815260200190815260200160002082815481106107ab577f4e487b7100000000000000000000000000000000000000000000000000000000600052603260045260246000fd5b906000526020600020906005020160040154600960003373ffffffffffffffffffffffffffffffffffffffff1673ffffffffffffffffffffffffffffffffffffffff1681526020019081526020016000208381548110610834577f4e487b7100000000000000000000000000000000000000000000000000000000600052603260045260246000fd5b9060005260206000209060050201600301541415610887576040517f08c379a000000000000000000000000000000000000000000000000000000000815260040161087e90612489565b60405180910390fd5b600960003373ffffffffffffffffffffffffffffffffffffffff1673ffffffffffffffffffffffffffffffffffffffff16815260200190815260200160002082815481106108fe577f4e487b7100000000000000000000000000000000000000000000000000000000600052603260045260246000fd5b906000526020600020906005020160040154421015610952576040517f08c379a0000000000000000000000000000000000000000000000000000000008152600401610949906123e9565b60405180910390fd5b6000600960003373ffffffffffffffffffffffffffffffffffffffff1673ffffffffffffffffffffffffffffffffffffffff16815260200190815260200160002083815481106109cb577f4e487b7100000000000000000000000000000000000000000000000000000000600052603260045260246000fd5b90600052602060002090600502016002015490506000600960003373ffffffffffffffffffffffffffffffffffffffff1673ffffffffffffffffffffffffffffffffffffffff1681526020019081526020016000208481548110610a58577f4e487b7100000000000000000000000000000000000000000000000000000000600052603260045260246000fd5b906000526020600020906005020160010160009054906101000a900473ffffffffffffffffffffffffffffffffffffffff16905060008173ffffffffffffffffffffffffffffffffffffffff1683604051610ab290612349565b60006040518083038185875af1925050503d8060008114610aef576040519150601f19603f3d011682016040523d82523d6000602084013e610af4565b606091505b5050905080610b38576040517f08c379a0000000000000000000000000000000000000000000000000000000008152600401610b2f90612429565b60405180910390fd5b610b40611ea8565b600960003373ffffffffffffffffffffffffffffffffffffffff1673ffffffffffffffffffffffffffffffffffffffff1681526020019081526020016000208681548110610bb7577f4e487b7100000000000000000000000000000000000000000000000000000000600052603260045260246000fd5b90600052602060002090600502016040518060a0016040529081600082015481526020016001820160009054906101000a900473ffffffffffffffffffffffffffffffffffffffff1673ffffffffffffffffffffffffffffffffffffffff1673ffffffffffffffffffffffffffffffffffffffff16815260200160028201548152602001600382015481526020016004820154815250509050600960003373ffffffffffffffffffffffffffffffffffffffff1673ffffffffffffffffffffffffffffffffffffffff168152602001908152602001600020600186610c9c91906126be565b81548110610cd3577f4e487b7100000000000000000000000000000000000000000000000000000000600052603260045260246000fd5b9060005260206000209060050201600960003373ffffffffffffffffffffffffffffffffffffffff1673ffffffffffffffffffffffffffffffffffffffff1681526020019081526020016000208781548110610d58577f4e487b7100000000000000000000000000000000000000000000000000000000600052603260045260246000fd5b9060005260206000209060050201600082015481600001556001820160009054906101000a900473ffffffffffffffffffffffffffffffffffffffff168160010160006101000a81548173ffffffffffffffffffffffffffffffffffffffff021916908373ffffffffffffffffffffffffffffffffffffffff16021790555060028201548160020155600382015481600301556004820154816004015590505080600960003373ffffffffffffffffffffffffffffffffffffffff1673ffffffffffffffffffffffffffffffffffffffff168152602001908152602001600020600187610e4591906126be565b81548110610e7c577f4e487b7100000000000000000000000000000000000000000000000000000000600052603260045260246000fd5b90600052602060002090600502016000820151816000015560208201518160010160006101000a81548173ffffffffffffffffffffffffffffffffffffffff021916908373ffffffffffffffffffffffffffffffffffffffff160217905550604082015181600201556060820151816003015560808201518160040155905050600960003373ffffffffffffffffffffffffffffffffffffffff1673ffffffffffffffffffffffffffffffffffffffff168152602001908152602001600020805480610f71577f4e487b7100000000000000000000000000000000000000000000000000000000600052603160045260246000fd5b60019003818190600052602060002090600502016000808201600090556001820160006101000a81549073ffffffffffffffffffffffffffffffffffffffff02191690556002820160009055600382016000905560048201600090555050905560016000815480929190610fe49061272e565b91905055508360046000828254610ffb91906126be565b92505081905550836003600082825461101491906126be565b9250508190555061102a60018260000151611b64565b5050505050505050565b60055481565b6000423360405160200161104f92919061235e565b6040516020818303038152906040528051906020012060001c9050600034905060003390506006548210156110b9576040517f08c379a00000000000000000000000000000000000000000000000000000000081526004016110b090612509565b60405180910390fd5b600960008273ffffffffffffffffffffffffffffffffffffffff1673ffffffffffffffffffffffffffffffffffffffff1681526020019081526020016000206040518060a001604052808581526020018373ffffffffffffffffffffffffffffffffffffffff1681526020018481526020014281526020014281525090806001815401808255809150506001900390600052602060002090600502016000909190919091506000820151816000015560208201518160010160006101000a81548173ffffffffffffffffffffffffffffffffffffffff021916908373ffffffffffffffffffffffffffffffffffffffff16021790555060408201518160020155606082015181600301556080820151816004015550506001600960008373ffffffffffffffffffffffffffffffffffffffff1673ffffffffffffffffffffffffffffffffffffffff168152602001908152602001600020805490501415611233576002600081548092919061122d90612758565b91905055505b6001600081548092919061124690612758565b9190505550816004600082825461125d9190612637565b9250508190555081600360008282546112769190612637565b92505081905550505050565b600080600080600154600254600354600554935093509350935090919293565b6112aa611ddc565b73ffffffffffffffffffffffffffffffffffffffff166112c861132a565b73ffffffffffffffffffffffffffffffffffffffff161461131e576040517f08c379a0000000000000000000000000000000000000000000000000000000008152600401611315906124c9565b60405180910390fd5b6113286000611de4565b565b60008060009054906101000a900473ffffffffffffffffffffffffffffffffffffffff16905090565b60075481565b60035481565b60008061136c8333611a46565b5091509150816113b1576040517f08c379a00000000000000000000000000000000000000000000000000000000081526004016113a8906124a9565b60405180910390fd5b3373ffffffffffffffffffffffffffffffffffffffff16600960003373ffffffffffffffffffffffffffffffffffffffff1673ffffffffffffffffffffffffffffffffffffffff168152602001908152602001600020828154811061143f577f4e487b7100000000000000000000000000000000000000000000000000000000600052603260045260246000fd5b906000526020600020906005020160010160009054906101000a900473ffffffffffffffffffffffffffffffffffffffff1673ffffffffffffffffffffffffffffffffffffffff16146114c7576040517f08c379a00000000000000000000000000000000000000000000000000000000081526004016114be90612469565b60405180910390fd5b600960003373ffffffffffffffffffffffffffffffffffffffff1673ffffffffffffffffffffffffffffffffffffffff168152602001908152602001600020818154811061153e577f4e487b7100000000000000000000000000000000000000000000000000000000600052603260045260246000fd5b906000526020600020906005020160040154600960003373ffffffffffffffffffffffffffffffffffffffff1673ffffffffffffffffffffffffffffffffffffffff16815260200190815260200160002082815481106115c7577f4e487b7100000000000000000000000000000000000000000000000000000000600052603260045260246000fd5b90600052602060002090600502016003015414611619576040517f08c379a0000000000000000000000000000000000000000000000000000000008152600401611610906124e9565b60405180910390fd5b6000600854426116299190612637565b905080600960003373ffffffffffffffffffffffffffffffffffffffff1673ffffffffffffffffffffffffffffffffffffffff16815260200190815260200160002083815481106116a3577f4e487b7100000000000000000000000000000000000000000000000000000000600052603260045260246000fd5b90600052602060002090600502016004018190555061174b6000600960003373ffffffffffffffffffffffffffffffffffffffff1673ffffffffffffffffffffffffffffffffffffffff1681526020019081526020016000208481548110611734577f4e487b7100000000000000000000000000000000000000000000000000000000600052603260045260246000fd5b906000526020600020906005020160000154611b64565b50505050565b60025481565b60045481565b60015481565b60003490506007548110156117ad576040517f08c379a00000000000000000000000000000000000000000000000000000000081526004016117a490612529565b60405180910390fd5b60006117b98484611a46565b50509050806117fd576040517f08c379a00000000000000000000000000000000000000000000000000000000081526004016117f490612409565b60405180910390fd5b600a600085815260200190815260200160002060405180606001604052808573ffffffffffffffffffffffffffffffffffffffff1681526020013373ffffffffffffffffffffffffffffffffffffffff16815260200142815250908060018154018082558091505060019003906000526020600020906003020160009091909190915060008201518160000160006101000a81548173ffffffffffffffffffffffffffffffffffffffff021916908373ffffffffffffffffffffffffffffffffffffffff16021790555060208201518160010160006101000a81548173ffffffffffffffffffffffffffffffffffffffff021916908373ffffffffffffffffffffffffffffffffffffffff16021790555060408201518160020155505060016005546119299190612637565b60058190555081600360008282546119419190612637565b9250508190555050505050565b611956611ddc565b73ffffffffffffffffffffffffffffffffffffffff1661197461132a565b73ffffffffffffffffffffffffffffffffffffffff16146119ca576040517f08c379a00000000000000000000000000000000000000000000000000000000081526004016119c1906124c9565b60405180910390fd5b600073ffffffffffffffffffffffffffffffffffffffff168173ffffffffffffffffffffffffffffffffffffffff161415611a3a576040517f08c379a0000000000000000000000000000000000000000000000000000000008152600401611a3190612449565b60405180910390fd5b611a4381611de4565b50565b600080600080600960008673ffffffffffffffffffffffffffffffffffffffff1673ffffffffffffffffffffffffffffffffffffffff16815260200190815260200160002080549050905060005b81811015611b505786600960008873ffffffffffffffffffffffffffffffffffffffff1673ffffffffffffffffffffffffffffffffffffffff1681526020019081526020016000208281548110611b14577f4e487b7100000000000000000000000000000000000000000000000000000000600052603260045260246000fd5b9060005260206000209060050201600001541415611b3d57600181839450945094505050611b5d565b8080611b4890612758565b915050611a94565b5060008082935093509350505b9250925092565b6000600a60008381526020019081526020016000208054905090506000600a6000848152602001908152602001600020805490501115611dd75760005b81811015611dd557600060018284611bb991906126be565b611bc391906126be565b90506000600a60008681526020019081526020016000208281548110611c12577f4e487b7100000000000000000000000000000000000000000000000000000000600052603260045260246000fd5b906000526020600020906003020160010160009054906101000a900473ffffffffffffffffffffffffffffffffffffffff1690506000600a600754611c57919061268d565b905060008273ffffffffffffffffffffffffffffffffffffffff1682604051611c7f90612349565b60006040518083038185875af1925050503d8060008114611cbc576040519150601f19603f3d011682016040523d82523d6000602084013e611cc1565b606091505b505090508160036000828254611cd791906126be565b92505081905550808015611ce85750875b15611dbe57600a6000888152602001908152602001600020805480611d36577f4e487b7100000000000000000000000000000000000000000000000000000000600052603160045260246000fd5b6001900381819060005260206000209060030201600080820160006101000a81549073ffffffffffffffffffffffffffffffffffffffff02191690556001820160006101000a81549073ffffffffffffffffffffffffffffffffffffffff021916905560028201600090555050905560056000815480929190611db89061272e565b91905055505b505050508080611dcd90612758565b915050611ba1565b505b505050565b600033905090565b60008060009054906101000a900473ffffffffffffffffffffffffffffffffffffffff169050816000806101000a81548173ffffffffffffffffffffffffffffffffffffffff021916908373ffffffffffffffffffffffffffffffffffffffff1602179055508173ffffffffffffffffffffffffffffffffffffffff168173ffffffffffffffffffffffffffffffffffffffff167f8be0079c531659141344cd1fd0a4f28419497f9722a3daafe3b4186f6b6457e060405160405180910390a35050565b6040518060a0016040528060008152602001600073ffffffffffffffffffffffffffffffffffffffff1681526020016000815260200160008152602001600081525090565b600081359050611efc81612ae4565b92915050565b600081359050611f1181612afb565b92915050565b600060208284031215611f2957600080fd5b6000611f3784828501611eed565b91505092915050565b600060208284031215611f5257600080fd5b6000611f6084828501611f02565b91505092915050565b60008060408385031215611f7c57600080fd5b6000611f8a85828601611f02565b9250506020611f9b85828601611eed565b9150509250929050565b6000611fb1838361226a565b60a08301905092915050565b6000611fc983836122d2565b60608301905092915050565b611fde816126f2565b82525050565b611fed816126f2565b82525050565b612004611fff826126f2565b6127a1565b82525050565b6000612015826125c9565b61201f81856125f9565b935061202a836125a9565b8060005b8381101561205b5781516120428882611fa5565b975061204d836125df565b92505060018101905061202e565b5085935050505092915050565b6000612073826125d4565b61207d818561260a565b9350612088836125b9565b8060005b838110156120b95781516120a08882611fbd565b97506120ab836125ec565b92505060018101905061208c565b5085935050505092915050565b60006120d3602b83612626565b91506120de8261283a565b604082019050919050565b60006120f6601f83612626565b915061210182612889565b602082019050919050565b6000612119601d83612626565b9150612124826128b2565b602082019050919050565b600061213c602683612626565b9150612147826128db565b604082019050919050565b600061215f600f83612626565b915061216a8261292a565b602082019050919050565b6000612182602783612626565b915061218d82612953565b604082019050919050565b60006121a5601283612626565b91506121b0826129a2565b602082019050919050565b60006121c8602083612626565b91506121d3826129cb565b602082019050919050565b60006121eb602383612626565b91506121f6826129f4565b604082019050919050565b600061220e602383612626565b915061221982612a43565b604082019050919050565b6000612231602483612626565b915061223c82612a92565b604082019050919050565b600061225460008361261b565b915061225f82612ae1565b600082019050919050565b60a0820160008201516122806000850182612314565b5060208201516122936020850182611fd5565b5060408201516122a66040850182612314565b5060608201516122b96060850182612314565b5060808201516122cc6080850182612314565b50505050565b6060820160008201516122e86000850182611fd5565b5060208201516122fb6020850182611fd5565b50604082015161230e6040850182612314565b50505050565b61231d81612724565b82525050565b61232c81612724565b82525050565b61234361233e82612724565b6127c5565b82525050565b600061235482612247565b9150819050919050565b600061236a8285612332565b60208201915061237a8284611ff3565b6014820191508190509392505050565b600060208201905061239f6000830184611fe4565b92915050565b600060208201905081810360008301526123bf818461200a565b905092915050565b600060208201905081810360008301526123e18184612068565b905092915050565b60006020820190508181036000830152612402816120c6565b9050919050565b60006020820190508181036000830152612422816120e9565b9050919050565b600060208201905081810360008301526124428161210c565b9050919050565b600060208201905081810360008301526124628161212f565b9050919050565b6000602082019050818103600083015261248281612152565b9050919050565b600060208201905081810360008301526124a281612175565b9050919050565b600060208201905081810360008301526124c281612198565b9050919050565b600060208201905081810360008301526124e2816121bb565b9050919050565b60006020820190508181036000830152612502816121de565b9050919050565b6000602082019050818103600083015261252281612201565b9050919050565b6000602082019050818103600083015261254281612224565b9050919050565b600060208201905061255e6000830184612323565b92915050565b60006080820190506125796000830187612323565b6125866020830186612323565b6125936040830185612323565b6125a06060830184612323565b95945050505050565b6000819050602082019050919050565b6000819050602082019050919050565b600081519050919050565b600081519050919050565b6000602082019050919050565b6000602082019050919050565b600082825260208201905092915050565b600082825260208201905092915050565b600081905092915050565b600082825260208201905092915050565b600061264282612724565b915061264d83612724565b9250827fffffffffffffffffffffffffffffffffffffffffffffffffffffffffffffffff03821115612682576126816127cf565b5b828201905092915050565b600061269882612724565b91506126a383612724565b9250826126b3576126b26127fe565b5b828204905092915050565b60006126c982612724565b91506126d483612724565b9250828210156126e7576126e66127cf565b5b828203905092915050565b60006126fd82612704565b9050919050565b600073ffffffffffffffffffffffffffffffffffffffff82169050919050565b6000819050919050565b600061273982612724565b9150600082141561274d5761274c6127cf565b5b600182039050919050565b600061276382612724565b91507fffffffffffffffffffffffffffffffffffffffffffffffffffffffffffffffff821415612796576127956127cf565b5b600182019050919050565b60006127ac826127b3565b9050919050565b60006127be8261282d565b9050919050565b6000819050919050565b7f4e487b7100000000000000000000000000000000000000000000000000000000600052601160045260246000fd5b7f4e487b7100000000000000000000000000000000000000000000000000000000600052601260045260246000fd5b60008160601b9050919050565b7f4465706f736974207769746864726177206d61747572697479206e6f7420616360008201527f6869657665642079657421000000000000000000000000000000000000000000602082015250565b7f4e6f204465706f736974732065786973747320666f7220616464726573732100600082015250565b7f4661696c656420746f207472616e73666572207468652066756e64732e000000600082015250565b7f4f776e61626c653a206e6577206f776e657220697320746865207a65726f206160008201527f6464726573730000000000000000000000000000000000000000000000000000602082015250565b7f4e6f7420617574686f7269736564210000000000000000000000000000000000600082015250565b7f4465706f7369742077697468647261772072657175657374206e6f742073756260008201527f6d69747465642100000000000000000000000000000000000000000000000000602082015250565b7f4465706f736974206e6f7420666f756e64210000000000000000000000000000600082015250565b7f4f776e61626c653a2063616c6c6572206973206e6f7420746865206f776e6572600082015250565b7f4465706f73697420776974686472617720616c7265616479207375626d69747460008201527f6564210000000000000000000000000000000000000000000000000000000000602082015250565b7f302e30312045544820726571756972656420746f20637265617465204465706f60008201527f7369740000000000000000000000000000000000000000000000000000000000602082015250565b7f302e30303039312045544820726571756972656420746f20637265617465205760008201527f6174636800000000000000000000000000000000000000000000000000000000602082015250565b50565b612aed816126f2565b8114612af857600080fd5b50565b612b0481612724565b8114612b0f57600080fd5b5056fea26469706673582212206b697cacd1a3f619677b3729018ada88a3b1598c6d78773d7b3ddb74c04b1d2a64736f6c63430008040033",
  "linkReferences": {},
  "deployedLinkReferences": {}
}